:020000040800F2
:10000000600E0020450100086B130008B7120008BD
:1000100069130008530200086D2B0008000000005F
:10002000000000000000000000000000F1160008C1
:10003000B502000800000000EF160008F3160008E3
:100040005F0100085F0100085F0100085F01000810
:100050005F0100085F0100085F0100085F01000800
:100060005F0100085F0100085F0100085F010008F0
:100070005F0100085F0100085F0100085F010008E0
:100080005F0100085F0100085F0100085F010008D0
:10009000052B00085F0100085F0100085F010008F0
:1000A0005F0100085F0100085F0100085F010008B0
:1000B0005F0100085F0100085F0100085F010008A0
:1000C0005F0100085F0100085F0100085F01000890
:1000D0005F0100085F0100085F0100085F01000880
:1000E0005F0100085F0100085F0100085F01000870
:1000F0005F0100085F0100085F0100085F01000860
:100100005F0100085F0100085F0100085F0100084F
:100110005F0100085F0100085F0100085F0100083F
:100120005F0100085F0100085F0100085F0100082F
:10013000DFF80CD000F06CF800480047952E00085E
:10014000600E00200648804706480047FEE7FEE7AD
:10015000FEE7FEE7FEE7FEE7FEE7FEE7FEE7FEE777
:100160007917000831010008202A04DB203A21FA1F
:1001700002F00021704721FA02F3D040C2F12002C0
:10018000914008431946704740EA01039B0703D09A
:1001900009E008C9121F08C0042AFAD203E011F8C6
:1001A000013B00F8013B521EF9D270472DE9F05F88
:1001B0000546002092469B468846064681464024D6
:1001C0001BE02846414647462246FFF7CDFF5346EF
:1001D0005A46C01A914110D311461846224600F0E3
:1001E00029F82D1A67EB01084F462246012000210D
:1001F00000F020F817EB00094E41201EA4F1010485
:10020000DFDC484631462A464346BDE8F09F000001
:10021000064C074D06E0E06840F0010394E8070053
:1002200098471034AC42F6D3FFF786FFAC2F000896
:10023000CC2F0008202A04DB203A00FA02F100202B
:1002400070479140C2F1200320FA03F31943904014
:100250007047FEE7002070470020704770B52021EE
:10026000094800F034F90948094E0024D0F8185222
:10027000214608A02A5D325502F07AFC641CE4B2E3
:10028000412CF5D3002070BD0018014080010020F2
:10029000400100205553425F5265636976655F42B5
:1002A00075666665725B25645D203D203078257833
:1002B000200D0A007047000070B5044600F010F9E8
:1002C0000546601C02D004480078044400F008F998
:1002D000401BA042FAD370BD680000202DE9F84F02
:1002E000DFF8B8A100220AF1040B144601274FF0F1
:1002F0000F090BF1040E00BF0B6807FA04F52B4041
:10030000AB4274D1DFF898C14E68A6EB0C08664585
:100310002BD00DDC032E34D005DC36B3012E19D0E2
:10032000022E2FD11BE0112E16D0122E2AD119E049
:10033000B8F5881F19D006DCB8F5803F15D0B8F5A0
:10034000801F1FD111E0B8F5001F0ED0B8F5041FB3
:1003500018D10AE0CA6815E0CA68121D12E0CA681E
:1003600008320FE0CA680C320CE08A682AB1012A10
:100370004FF0080203D0456104E0042202E0056169
:1003800000E00022FF2B01D8064601E000F1040640
:100390004FEA840501D9A5F12005D6F800C009FA75
:1003A00005F82CEA080C02FA05F54CEA050CC6F82B
:1003B00000C04D68ED006AD53A4DAE6946F00106C1
:1003C000AE61AD6924F0030605F001050095364DD8
:1003D00006EB050CDCF80850A6074FEA167809FA78
:1003E00008F6B543314EB04202D100261AE04EE085
:1003F0002F4EB04201D1012614E02E4EB04201D161
:1004000002260FE02C4EB04201D103260AE02B4E0B
:10041000B04201D1042605E0294EB04201D10526A3
:1004200000E0062606FA08F62E43CCF808604D6870
:10043000DAF80060ED03554601D51E4300E09E4307
:100440002E604D68AD0305D5DBF800601E43CBF888
:10045000006004E0DBF800509D43CBF800504D688D
:10046000DEF80060ED02754601D51E4300E09E43B4
:100470002E604D68AD0205D5084D0C352E681E4323
:100480002E6004E0054E0C3635689D433560641CD3
:10049000102CFFF431AFBDE8F88F000000040140DC
:1004A000000011100010024000000140000801404F
:1004B000000C0140001001400014014000180140F0
:1004C000001C01408068084000D001207047C268CD
:1004D0004A40C26070470AB1016170470904FBE7F6
:1004E0000148806870470000680000200248816869
:1004F000027811448160704768000020074810B5F9
:10050000016841F010010160032000F09DF8002017
:1005100000F006F800F024F8002010BD0020024092
:1005200070B50D4D04464FF47A712878B1FBF0F0A8
:100530000A490968B1FBF0F000F0EBFD48B9102C56
:1005400007D200222146501E00F05EF800206C60A9
:1005500070BD012070BD0000680000207400002004
:10056000214808B5816941F001018161816901F08B
:1005700001010091C16941F08051C161C06900F081
:1005800080500090032000F05FF8002211466FF0C9
:100590000B0000F039F8002211466FF00A0000F05D
:1005A00033F8002211466FF0090000F02DF8002208
:1005B0001146501F00F028F800221146101F00F0CD
:1005C00023F800221146901E00F01EF8002211466A
:1005D000501E00F019F80548416821F0E06141F033
:1005E0008061416008BD0000001002400000014031
:1005F00000F01F02012191404009800000F1E0203D
:10060000C0F8001170470000F0B40E4B1B680C4698
:10061000C3F30223C3F10705042D00D90425191DD6
:10062000072901D2002300E0DB1E012606FA05F1AE
:10063000491E214099409E40761E16403143F0BC31
:1006400000F094BE0CED00E0064900F007020868D7
:100650004FF6FF03184040EA0220034A10430860A7
:10066000704700000CED00E00000FA0510B50C0624
:1006700005D501F07F0100EB4110283003E000EBCD
:10068000411000F50A7099B232B101228272C18024
:10069000190C0181002010BD002282728180F9E7CF
:1006A000704700EB4112D0F85C04D26B01F0FBBB49
:1006B00000EB4112D0F85C04D2F83C2201F048BCB7
:1006C00010B504460A460B0601F07F0004EB40110A
:1006D00001D5283101E001F50A710870D009487090
:1006E00094F82804012809D0012084F828042068FF
:1006F00002F024F8002084F8280410BD022010BD68
:1007000070B50A460446090602F07F0003D504EBE3
:100710004011283103E004EB421101F50A71002574
:100720008D700870D009487094F82804012809D009
:10073000012084F82804206802F0AEF884F82854D8
:10074000002070BD022070BD70B504460D460E0637
:1007500001F07F0004EB401101D5283101E001F5E3
:100760000A710870E80948700A61CB7094F828048F
:10077000012809D0012084F82804206801F0AEFE89
:10078000002084F8280470BD022070BD70B50C46AE
:1007900001F07F0500EB4511C1E98F230022C1F86C
:1007A000442281F8292281F8285201F50A71620653
:1007B000006802F0CBF8002070BD70B50D4604460D
:1007C000090605F07F0003D504EB4011283103E052
:1007D00004EB451101F50A7101228A700870E809DD
:1007E000487094F82804012807D084F82824206849
:1007F00002F087F8680602D006E0022070BD04F21D
:100800002C41206802F046F8002084F8280470BDCE
:1008100070B50C4601F07F0500EB4511C1E90F23CF
:1008200000224A64012281F8292001F8285F62062B
:10083000006802F08BF8002070BD10B50446006817
:1008400002F066F9000402D5204600F09FFD206802
:1008500002F05EF940050CD5206830F8441F21F401
:1008600080610180204600F0EDF80021204600F074
:10087000FEF8206802F04CF9400405D5206830F8F5
:10088000441F21F480410180206802F041F9800476
:1008900005D5206830F8441F21F4005101802068FC
:1008A00002F036F9C00414D5206830F8401F21F05A
:1008B00004010180206830F8401F21F00801018008
:1008C000204600F0CCF8206830F8441F21F4805115
:1008D0000180206802F01CF900051AD5206830F864
:1008E000401F41F008010180206830F8441F21F4C6
:1008F00000610180206830F8401F41F00401018050
:10090000206802F005F9C043C00402D5204600F07B
:10091000E3F8206802F0FCF8800508D5206830F87C
:10092000441F21F400710180204600F09CF82068EB
:1009300002F0EEF8C00505D5206830F8441F21F418
:100940008071018010BD00002DE9F04186B00400E7
:100950004FF0000504D094F82904002620B108E0E7
:10096000012006B0BDE8F08184F82864204600F03C
:100970004BF8032084F82904206801F084FF04F177
:100980001001142288466846FFF7FEFB94E80F002A
:1009900001F0D2FE0021206802F0CDF85FF00107DF
:1009A00004EB451080F8297000F8285F8581C67037
:1009B000066146616D1C86610F2DF1D35FF000006A
:1009C00004EB401181F8296281F82802888681F8B9
:1009D0002B62C1F83862C1F83C62401CC1F8406229
:1009E0000F28EDD3142241466846FFF7CDFB94E86B
:1009F0000F0001F039FF84F8246084F8297420681E
:100A000001F030FF0020ACE708B500680B498842D0
:100A100012D10B48C16941F40001C161C0690022D3
:100A200000F40000009011461420FFF7EDFDBDE832
:100A300008401420FFF7DCBD08BD0000005C00404A
:100A40000010024010B504460121D0F85C0401F00A
:100A50005FFBD4F85C04BDE8104001F028BBD0F87F
:100A60005C0401F043BBD0F85C0401F045BB10B559
:100A7000044690F8280401280BD0012084F82804AB
:100A800084F82410206802F058F8002084F8280424
:100A900010BD022010BDD0F85C2400F22C4110469D
:100AA00001F049BB10B5044690F82804012810D085
:100AB000012084F8280401462046FFF7F1FD206854
:100AC00001F0CEFE206802F016F8002084F8280419
:100AD00010BD022010BD000010B50446D0F85C0423
:100AE00001F076FBA069002804D00348016841F0BA
:100AF0000601016010BD000010ED00E02DE9F84393
:100B000005460078354CC00754D0E0690026C00087
:100B100008D4E06940F08050E061E069012600F00F
:100B2000805000902E480168C90512D401688046A3
:100B300041F480710160FFF7D3FC074605E000BF78
:100B4000FFF7CEFCC01B642823D8D8F80000C005EE
:100B5000F6D5206A10F4407021D0A98801F44071C4
:100B600081421CD0206A1F49012220F440700A6093
:100B700000220A602062C00711D0FFF7B1FC0746CF
:100B800041F2883808E000BFFFF7AAFCC11B4145CD
:100B900002D90320BDE8F883206A8007F4D5206AD3
:100BA000696820F44070084320621EB1E06920F0BB
:100BB0008050E0612878800705D56068A96820F436
:100BC0004040084360602878C00605D560686969C0
:100BD00020F48000084360600020DBE70010024042
:100BE00000700040400442422DE9F047DFF83C81AC
:100BF00005460E46D8F8000000F00700B0420CD2BF
:100C0000D8F8001021F007013143C8F80010D8F8D7
:100C1000000000F00700B04263D12878444C800700
:100C200005D56068A96820F0F00008436060287866
:100C3000C00745D06868012816D02168022816D060
:100C4000890700294DDA616821F0030101436160E1
:100C5000FFF746FC6968074641F2883001290FD04A
:100C60000229814619D027E021688903E9E7890133
:100C7000E7E700BFFFF734FCC11B494501D918E085
:100C800081466068C0F381000128F3D118E000BFFD
:100C9000FFF726FCC11B49450BD86068C0F38100F3
:100CA0000228F5D10CE000BFFFF71AFCC11B494533
:100CB00002D90320BDE8F087606810F00C0FF3D173
:100CC000D8F80010404601F00701B1420BD9016885
:100CD00021F0070131430160006800F00700B042D5
:100CE00001D00120E6E72878400705D56068E9686B
:100CF00020F4E060084360602878000706D560684B
:100D0000296920F4605040EAC100606000F03CF8BE
:100D10006168084AC1F30311515CC8400649086084
:100D20000020FFF7FDFB0020C4E700000020024088
:100D300000100240942F0008740000200148006851
:100D400070470000740000200448054900684968A5
:100D5000044AC1F30221515CC8407047740000206E
:100D600000100240A42F00080448054900684968A3
:100D7000044AC1F3C221515CC8407047740000208E
:100D800000100240A42F000812A185B00FC98DE801
:100D90000F0014A0144A006804905168134801F031
:100DA0000C03042B10D0082B0ED1C1F38343C903CD
:100DB0001DF803000AD5516804AAC1F34041515CF3
:100DC0000A4A5043B0FBF1F005B070470849484368
:100DD000FAE7000002030405060708090A0B0C0DD8
:100DE0000E0F1010010200000010024000127A00E5
:100DF00000093D002DE9F84F04460078B94DC007C1
:100E000048D06868C0F38100012807D06868C0F343
:100E10008100022809D16868C00306D528688003CC
:100E200038D5606800286FD034E06068B0F5803F46
:100E30000BD010B1B0F5A02F11D0286820F480306D
:100E40002860286820F4802002E0286840F4803080
:100E50002860606888B1FFF743FB064609E0286810
:100E600040F480202860F0E7FFF73AFB801B6428FD
:100E700075D828688003F7D50CE0FFF731FB0646EC
:100E800005E000BFFFF72CFB801B6428F0D8286822
:100E90008003F7D42078944E80074FF001094FF07B
:100EA00000083BD5686810F00C0F07D06868C0F3E5
:100EB0008100022809D16868C00306D42868800729
:100EC00014D5206901281FD110E02069B0B1C6F8FF
:100ED0000090FFF705FB074605E000BFFFF700FBAA
:100EE000C01B0228C4D828688007F7D52868616924
:100EF00020F0F80040EAC10028600FE0C6F800804A
:100F0000FFF7EEFA074606E0E9E000BFFFF7E8FA70
:100F1000C01B022823D828688007F7D42078000750
:100F20002CD57248A169D9B1C0F80090FFF7D8FA62
:100F3000074604E0FFF7D4FAC01B02280FD8686AFE
:100F40008007F7D56A484FF4FA510068B0FBF1F01A
:100F5000009000BF0098411E0091FAD20EE080E0A0
:100F6000C0F80080FFF7BCFA074604E0FFF7B8FAC4
:100F7000C01B022875D8686A8007F7D4207840071C
:100F800060D5E8690027C00008D4E86940F08050C7
:100F9000E861E869012700F0805000905548016839
:100FA000C90513D40168834641F480710160FFF7DD
:100FB00097FA824606E000BFFFF792FAA0EB0A001C
:100FC00064284ED8DBF80000C005F5D5E06801289C
:100FD0000AD008B1052813D0286A20F00100286241
:100FE000286A20F0040002E0286A40F0010028622C
:100FF000E06841F2883B98B1FFF772FA82460BE055
:10100000286A40F004002862EEE700BFFFF768FAA4
:10101000A0EB0A0159455AD8286A8007F6D50CE09A
:10102000FFF75EFA824605E0FFF75AFAA0EB0A01E5
:1010300059454CD8286A8007F6D41FB1E86920F0DA
:101040008050E861E06988B36968C1F381010229D1
:1010500045D00228C6F8608004D0FFF741FA044664
:1010600038E034E0FFF73CFA074604E0FFF738FACF
:10107000C01B02282BD828688001F7D4206AB0F55D
:10108000803F05D16868A16820F40030084368609B
:10109000D4E908010843696821F4741108436860C1
:1010A000C6F86090FFF71CFA044606E015E000BFA2
:1010B000FFF716FA001B022809D828688001F7D527
:1010C0000BE000BFFFF70CFA001B022802D9032037
:1010D000BDE8F88F28688001F4D40020F8E70120EB
:1010E000F6E7000000100240000042428004424245
:1010F00074000020007000404FF0E02104280869CF
:1011000003D020F004000861704740F00400FAE7C3
:10111000704710B5401EB0F1807F01D3012010BD93
:101120004FF0E02460610F21601700F01FF90020EC
:10113000A06107202061002010BD10B5FFF7E8FF77
:1011400010BD70B5040004D094F83900002510B12A
:1011500006E0012070BD84F83850204600F022F8E7
:10116000242084F839002068C16821F40051C1604E
:10117000204600F025FB2068016921F490410161BF
:101180002068416921F02A0141612068C16841F469
:101190000051C160E563202084F8390084F83A00EA
:1011A000002070BD10B50068114986B088421DD17D
:1011B0001048816941F48041816180690E4C00F4DE
:1011C000804004904FF400700090022001900320B2
:1011D000039069462046FFF781F800212015CDE9EC
:1011E0000001029169462046FFF778F806B010BD6D
:1011F0000038014000100240000801402DE9F8438A
:10120000044690F839001F4616460D46202850D156
:10121000A5B19EB194F8380001284AD0012084F885
:1012200038004FF00008C4F83C80212084F83900D1
:10123000FFF756F9A6848146E68426E00120BDE842
:10124000F883E08C401EE084A0684B46B0F5805FD8
:101250004FF000024FF080012046009703D000F0CD
:1012600067FBE8B90DE000F063FBC8B92888216886
:10127000C0F308004860206908B16D1C05E0AD1C92
:1012800003E0216815F8010B4860E08C0028D8D1F4
:101290004B46002240212046009700F049FB08B150
:1012A0000320CCE7202084F8390084F8388000201F
:1012B000C5E70220C3E7FEE730B51B4885B081696A
:1012C00041F040018161816901F04001049181692F
:1012D00041F010018161816901F01001049181697F
:1012E00041F0040181618069104D00F00400049018
:1012F000012220212846FFF7EEF81C200090002054
:101300000124CDE9010469462846FEF7E7FF2020C5
:10131000CDE900040220CDE9024069462846FEF7E7
:10132000DDFF05B030BD0000001002400018014094
:1013300010B500220849094800F080FD0849074817
:1013400000F073FF0749054800F09AFBBDE8104024
:10135000024800F0B7BF000000000020800100201C
:101360007C00002058000020FEE770470907090EA6
:10137000002806DA00F00F0000F1E02080F8141DCC
:10138000704700F1E02080F8001470472DE9FC5F01
:101390004FF000080446ADF80480ADF8008048F630
:1013A0000F7B4FF002094FF4806692E1BDF8041004
:1013B00011F00F072BD030F82710ADF80010BDF852
:1013C0000010090478D530F8272040F68F710A40C4
:1013D00020F8272004EB471595F8320205F50A7529
:1013E0000028206869D0297830F8212052047DD562
:1013F000B0F8503009EBC101194406EB4101415AE4
:10140000C1F309015FEA010A71D0EA88D0E0BDF8B2
:101410000410C9062AD4018801EA0B010180206862
:1014200004F12805B0F850202B7809EBC3011144D2
:1014300006EB4101405AC0F309006064E16B0844C7
:10144000E06300212046FFF72CF994F824000028DF
:10145000ABD0A8690028A8D194F82400216840F0F6
:101460008000A1F84C0084F8248032E1018804F562
:101470000A75ADF80010BDF8001009051ED5B0F8CA
:1014800050302978062202EBC101194406EB4101D4
:10149000405A04F22C41C0F30903EB61AA8820688A
:1014A00001F03AFB2068018840F68F7211400180FC
:1014B0002046FFF7F0FA0CE1A0E055E0BDF800107F
:1014C0000904D2D5028840F68F710A400280206854
:1014D000B0F850302978062202EBC101194406EB1E
:1014E0004101405A83059B0DEB6101E051E063E04F
:1014F00008D0AA886969206801F00EFBE96968696B
:101500000844686100212046FFF7D2F82068B0F84F
:101510005010891D06EB4101014428693E280CD971
:10152000C0F34F12C00601D1521E92B24FF6FF70A7
:1015300000EA822040F4004009E0C0F34F02C007F7
:1015400001D0521C92B24FF6FF7000EA8220086070
:10155000216808884BF68F72104080F4405048F2A2
:10156000800210430880B4E0B0F850202B780621A8
:1015700001EBC301114406EB4101415AC1F30901DA
:101580005FEA010A24D0AA885346696901F0C4FAC7
:101590001EE0B0F85020062303EBC101114406EB16
:1015A0004101415AC1F309015FEA010A04D02A89C5
:1015B0005346696901F0B0FA2978206830F8213083
:1015C00048F68F72134048F2C002134320F82130CE
:1015D000E96901EB0A00E861696901EB0A026A61E5
:1015E000AB6913B12869504504D929782046FFF723
:1015F0005FF803E029782046FFF7C8F8BDF800003F
:10160000000666D5206804EB471530F8271001EA7C
:101610000B0120F8271095F83200283500282068A3
:1016200012D0297830F82120B0F8503052061ED55B
:1016300009EBC101194406EB4101405A83059B0D9A
:10164000EB6124D0EA881EE0B0F850302A7809EB2C
:10165000C201194406EB4101405A83059B0DEB6121
:1016600021D0AA886969206801F06DFA1BE0062282
:1016700002EBC101194406EB4101405A83059B0D61
:10168000EB6104D02A896969206801F05CFA297845
:10169000206830F8212048F68F731A404CF28003FE
:1016A0001A4320F821202068B0F850202B7809EB4D
:1016B000C301114406EB4101405AC0F30900E8613F
:1016C00069690A186A612978AB69204663B1FFF736
:1016D0009FF82068B0F84410ADF8041009043FF5F5
:1016E00065AE0020BDE8FC9FFEF7DBFFF1E7704729
:1016F000704710B5FEF7FAFEBDE81040FFF71DBDBC
:1017000030B595B001210804CDE900100024029401
:1017100002250491CDE907504FF4E0100990684686
:10172000FFF768FB00B1FEE70F20CDE90A054FF493
:101730008060CDE90C4002210AA80E94FFF754FA0C
:1017400000B1FEE7102014940F900FA8FFF7D6F910
:1017500000B1FEE7FFF7F2FA4FF47A71B0FBF1F057
:10176000FFF7D7FC0420FFF7C7FC00221146501EEC
:10177000FEF74AFF15B030BD0D48016841F0010188
:10178000016041680B4A1140416001680A4A1140FA
:101790000160016821F480210160416821F4FE01AB
:1017A00041604FF41F0181600449C0030860704725
:1017B000001002400000FFF8FFFFF6FE08ED00E019
:1017C0002DE9F041044600680169E26821F44051C6
:1017D000114301612169A0680843616908432168D8
:1017E000CA6841F20C639A430243CA6020684169A7
:1017F000A26921F44071114341614C49206864257C
:10180000322688423CD1FFF7AFFA00EBC00101EB72
:10181000001061688900B0FBF1F7FFF7A5FA00EB53
:10182000C00101EB00106168B0468900B0FBF1F027
:10183000B0FBF5F06FF01801484307EB800106EBB1
:101840000110B0FBF5F000F0F006FFF78DFA00EBA9
:10185000C00101EB001061688900B0FBF1F0B0FB42
:10186000F5F006EB0016FFF77FFA00EBC00101EB85
:10187000001061688900B0FBF1F7FFF775FA3BE0F3
:10188000FFF762FA00EBC00101EB0010616889000C
:10189000B0FBF1F7FFF758FA00EBC00101EB0010C5
:1018A0006168B0468900B0FBF1F0B0FBF5F06FF075
:1018B0001801484307EB800106EB0110B0FBF5F07F
:1018C00000F0F006FFF740FA00EBC00101EB00105A
:1018D00061688900B0FBF1F0B0FBF5F006EB001693
:1018E000FFF732FA00EBC00101EB001061688900DC
:1018F000B0FBF1F7FFF728FA00EBC00101EB001095
:1019000061688900B0FBF1F0B0FBF5F06FF01801F1
:10191000484307EB800108EB0110B0FBF5F02168AC
:1019200000F00F0030448860BDE8F08100380140CD
:101930002DE9F041984617460E460446069D1DE0E7
:10194000681C1BD02DB1FEF7CBFDA0EB0800A84210
:1019500014D92068C16821F4D071C1602068416940
:1019600021F001014161202084F8390084F83A0017
:10197000002084F838000320BDE8F081206800686A
:1019800036EA000004D00020B842D9D00020F3E7A6
:101990000120F9E7D0F81802002180F8501008461D
:1019A000704770B50546D0F81842D5F81C2261780A
:1019B000D26820789047402322460121284600F033
:1019C00066FB002070BD10B50446812100F05BFA73
:1019D0000121204600F057FAD4F8180250B1D4F88B
:1019E0001C0204F5067480688047206800F070FDD2
:1019F00000202060002010BD10B5D0F81842E16C26
:101A0000012908D1D0F81C0223786178C2681846F1
:101A100090470020E064002010BD000029210180D3
:101A200000487047B80000200A2101800048704734
:101A3000F000002070B506460025402303228121D6
:101A400000F012FB402303220121304600F00CFB82
:101A5000542000F03FFDC6F8180278B1044600207B
:101A600084F85000D6F81C02406880474023224684
:101A70000121304600F00BFB284670BD0125FBE735
:101A800002460220002902D00020C2F81C12704732
:101A900010B5134690F8FC41D0F81822032C09D158
:101AA00092F8504034B9012482F850400A4681210E
:101AB00000F097FB002010BD70B500220D78D0F823
:101AC0001832144615F0600526D0202D4CD14A78E6
:101AD000921E0A2A1CD2DFE802F010081B1B1B1BF7
:101AE0001B140C05887818643EE0012203F14001C4
:101AF00031E04888000A586436E0012203F14401CD
:101B000029E00122DA648A79194600F053F82BE0C3
:101B100000F045F8022070BD4D78062D04D00A2D46
:101B20001CD00B2D20D11DE04B882225B5EB132FA7
:101B300007D1CA88222A00D92222D0F81C120C68A8
:101B400008E02125B5EB132F04D1CA88074C092AD8
:101B500000D90922214600F047F805E0012203F1EF
:101B60004801F8E788789864002070BDE400002000
:101B700010B5D0F8142252689047002010BD1346CB
:101B800010B50A46002100F082FA002010BD13466D
:101B900010B50A46002100F024FB002010BD10B54E
:101BA0000446802100F0F4FA2046BDE810400021F0
:101BB00000F0EEBA10B50323C0F80821C0F8F431E4
:101BC000C0F80C2113460A46002100F060FA0020FC
:101BD00010BD10B505210023C0F8F4111A461946AE
:101BE00000F055FA002010BD10B502238261C0F844
:101BF000F431C26113460A46002100F0F2FA0020D7
:101C000010BD10B504210023C0F8F4111A4619467E
:101C100000F0E7FA002010BD10B50A46024903A003
:101C200000F0E9F8004810BD5C08002043757374AB
:101C30006F6D2048494420436F6E6669670000005D
:101C400012200880004870472000002010B50A4686
:101C5000024903A000F0CFF8004810BD5C08002046
:101C6000437573746F6D2048494420496E746572E2
:101C7000666163650000000004200880004870472A
:101C80001C00002010B50A46024903A000F0B3F87A
:101C9000004810BD5C08002053544D6963726F65A5
:101CA0006C656374726F6E696373000010B50A46E9
:101CB000024903A000F09FF8004810BD5C08002016
:101CC00053544D333220437573746F6D2048756DD6
:101CD000616E20696E746572666163650000000064
:101CE00010B50A46024903A000F085F8004810BD6F
:101CF0005C0800203030303030303030303031410E
:101D000000000000F8B5044648880D46010A08297D
:101D100054D2DFE801F05304091753534951D4F862
:101D20001012207C0A6819E0207C02260028D4F8D2
:101D3000140205D0C16A68468847014646704AE0E9
:101D4000816AF8E7C1B2062926D2DFE801F0030A6A
:101D50000F14191ED4F81012207C4A686946904767
:101D600018E0D4F81012207C8A68F7E7D4F8101233
:101D7000207CCA68F2E7D4F81012207C0A69EDE7EB
:101D8000D4F81012207C4A69E8E7D4F81012207CBD
:101D90008A69E3E701461EE0C1B2D4F814026A463C
:101DA000836B20469847F5E7207C38B9D4F81402B5
:101DB000416B68468847EDE7207C20B129462046E4
:101DC000FFF7EDFEF8BDD4F81402016B68468847B2
:101DD000014607204870BDF800000028F2D0EA88CC
:101DE000002AEFD0824200D90246ADF800202046FA
:101DF000FFF7FAFEF8BD70B5002300281DD0044699
:101E0000002502E06D1CEDB2641C2678002EF9D18D
:101E1000022404EB45041480CC545B1C0322CA54F6
:101E200000245B1C06E0CA545B1CDAB28C54521CC2
:101E3000D3B2401C0278002AF5D170BD10B580B134
:101E4000D0F8143213B10023C0F8143209B1C0F82D
:101E50001012012180F8FC11027000F0AFF8002090
:101E600010BD022010BD10B50024D0F82002FEF7EE
:101E700047FC30B1012801D0022801D0022400E043
:101E80000124204610BD10B50024D0F82002FEF732
:101E900017FC30B1012801D0022801D0022400E053
:101EA0000124204610BD2DE9F0411746044641B1FA
:101EB000D4F8140242698AB394F8FC01032842D092
:101EC00043E0D4F8F411002504F11400022933D1C1
:101ED000D0E902639E4207D9F31A83609AB2394669
:101EE0002046FFF754FE12E04068B0FBF3F103FB1D
:101EF0001101A1B9984212D3D4F8F81188420ED238
:101F0000002211462046FFF742FEC4F8F851002394
:101F10001A461946204600F0BAF80DE012E0D4F84F
:101F20001402C16829B194F8FC01032801D12046AC
:101F300088472046FFF74DFE94F80002012804D19F
:101F400084F8005201E0204690470020BDE8F0816F
:101F500070B51546044641B1D4F8140282693AB30B
:101F600094F8FC01032824D025E0D4F8F41104F5FA
:101F7000827003291FD1D0E902218A420BD9531A5A
:101F800083600846834200D303469AB2294620461E
:101F9000FFF7F5FD0FE0D4F81402016929B194F8B8
:101FA000FC01032801D1204688472046FFF729FE7F
:101FB00001E020469047002070BD000010B51C498C
:101FC0000446C1F85C04C0F820121A4808600820D2
:101FD0004860022088600320C86000208861C861D2
:101FE00008620846FEF7B0FC20B14FF4977112A0CA
:101FF00000F0BDFD0022D4F820021823114604F59C
:102000000874FEF733FB5823002280212068FEF776
:102010002DFB9823002281212068FEF727FBD8237F
:10202000002201212068FEF721FB002010BD0000E6
:10203000FC030020005C00402E2E2F5372632F758E
:102040007362645F636F6E662E6300000A06D0F8E9
:10205000200201F07F0100EB411002D590F82A0028
:10206000704790F82A02704770B51D461346002449
:10207000D0F820022A46FEF767FB30B1012801D0D4
:10208000022801D0022400E00124204670BD10B5D2
:102090000024D0F82002FEF779FB30B1012801D0EE
:1020A000022801D0022400E00124204610BD70B5B2
:1020B0000022044640231146FFF7D6FF40252B4659
:1020C000002280212046C4F81051FFF7CDFF0120E7
:1020D000256284F8FC01D4F8180228B1D4F814025F
:1020E0002179426820469047002070BD90F8FD118C
:1020F00080F8FC110020704710B590F8FC110329FE
:1021000004D1D0F81412C96901B18847002010BD6C
:1021100001740020704710B50024D0F82002FEF7AB
:10212000A6FC30B1012801D0022801D0022400E031
:102130000124204610BD70B5044600F50270054626
:1021400000F05FF80120C4F8F401B4F80E02C4F8FE
:10215000F80194F8080210F01F010AD001290DD0EF
:10216000022910D000F08001204600F011F8002074
:1021700070BD2946204600F0AAF8F8E72946204617
:1021800000F08CF9F3E72946204600F019F9EEE754
:1021900010B50024D0F82002FEF70FFB30B1012863
:1021A00001D0022801D0022400E00124204610BD05
:1021B00010B50024D0F82002FEF774FC30B10128DD
:1021C00001D0022801D0022400E00124204610BDE5
:1021D00090F8FC1180F8FD11042180F8FC1100201A
:1021E000704710B50024D0F82002FEF711FB30B183
:1021F000012801D0022801D0022400E00124204659
:1022000010BD0A7802704A7842708A78CB7802EB67
:10221000032242800A794B7902EB032282808A7979
:10222000C97902EB0121C18070470246002011B13B
:10223000C2F8141270470220704710B5D0F814226B
:1022400002241AB11268904700B90024204610BD3C
:1022500070B50E461A4D897804462970012928D890
:1022600094F8FC01022802D0032822D105E099B19C
:102270000320616084F8FC0109E091B16068884244
:102280000AD0C1B22046FFF773FC2978616020466E
:10229000FFF7D3FF02280CD02046BDE87040FFF7BF
:1022A000B0BC022084F8FC0120466160FFF760FCAE
:1022B000F2E731462046BDE87040FFF770BC0000F1
:1022C0007800002010B5FFF773FF002010BD2DE946
:1022D000F04100264B78012532460A2B43D2DFE835
:1022E00003F03C584251420805422A27FFF70AFDF5
:1022F00063E004468888C8B9C888B8B9887800F00F
:102300007F0794F8FC01032810D084F8FE71394649
:102310002046FFF700FF2046FFF773FC1FB10220A5
:1023200084F8FC0149E084F8FC5146E020461AE0BC
:10233000FFF78EFF41E0CB88012B14D190F8FC31E0
:10234000022B02D0032B0ED104E08260012200F1A7
:10235000080114E00122011D11E090F8FC21022A7D
:1023600004D0032A02D0FFF71AFC26E0C560D0F89B
:10237000041209B10321C160022200F10C01FFF730
:1023800033FC1AE004464888012816D1C4F80452E8
:102390000BE0044690F8FC01022801D00328C5D1C7
:1023A0004888012809D1C4F80422D4F814028268AC
:1023B000204690472046FFF724FC3046BDE8F081D8
:1023C00070B50D460446287800260979C0F34110FF
:1023D000012806D06878A0B301281FD003283FD178
:1023E00007E0D4F81402294682682046904700206E
:1023F00070BD94F8FC01022817D003282CD16888FE
:1024000028B921B1802902D02046FFF7C1FED4F8B7
:102410001402294682682046904713E094F8FC0194
:10242000022802D0032817D103E0C9B180291BD1AB
:1024300016E06888A0B9480604D02046FFF713FDCF
:10244000E5E703E02046FFF7DCFB09E094F8FC0138
:10245000022807D003280BD029462046FFF79FFB10
:10246000304670BD4806FBD02046FFF791FEF7E7E7
:10247000080601F07F0004EB001501D5143501E0DA
:1024800005F582752046FFF7E1FD00B101202860C7
:10249000022229462046FFF7A7FBE1E770B5054673
:1024A00090F8FC010C4603280DD1207901280AD8A8
:1024B000D5F81402826828469047E08830B928464B
:1024C000FFF79FFB02E02846FFF769FB002070BD85
:1024D0007047000000487047A40300202DE9F04732
:1024E000CC780A7848F68F1334B1012C6DD0022CC9
:1024F00008D0032C13D10BE030F822401C4044F4E8
:1025000000730AE030F822401C4020F8224006E028
:1025100030F822401C4044F4C06320F822300C788C
:1025200030F8245048F68F72154048F280031D435E
:10253000254320F824508D7A48F6BF7904274BF6BE
:102540008F7A48F2C0044CF28006EDB30D7830F873
:1025500025C048F280180CEA020C4CEA080C20F85E
:1025600025C0CD88B0F850C025F0010591F8008055
:102570000CEBC80C00EB4C0CCCF800540D89B0F8F7
:1025800050C025F0010591F8008007EBC8076744AB
:1025900000EB4707C7F800544D78002D0D7830F850
:1025A00025704FEA47477DD0002F05DA30F82570B7
:1025B0001740374320F825700D7830F825707F06D6
:1025C00008D530F8257001E024E01DE017402743CE
:1025D00020F825700C7830F824501540354320F849
:1025E00024500C7830F8242002EA09021A4320F81B
:1025F00024200A7830F8221001EA0A01194320F851
:1026000022100020BDE8F08730F822401C4044F43E
:10261000806382E74D78F5B18D88B0F8506025F081
:1026200001050F7806EBC70600EB4606C6F8005416
:102630000D7830F82560760605D530F8256016400F
:10264000264320F825600A7830F8221001EA0901B3
:1026500081F02001D2E78C88B0F8505024F00104BA
:1026600091F800C007EBCC073D4400EB4505C5F8E9
:102670000044B0F850400D78062707EBC5052C4400
:1026800000EB44070C694FF6FF7C07F580673E2C92
:102690000CD9C4F34F15E40601D16D1EADB20CEA9E
:1026A000852400E01EE044F4004407E0C4F34F0535
:1026B000E40701D06D1CADB20CEA85243C600C78B7
:1026C00030F824506D0405D530F8245015403543BA
:1026D00020F824500A7830F8221001EA0A0181F427
:1026E00040518BE7002F05DA30F82570174037434B
:1026F00020F825700D7830F82560760605D530F87D
:1027000025601640264320F825600E7830F82650C4
:102710001540254320F826500C7830F8242002EA92
:102720000A0282F440521A4320F824200A7830F832
:10273000221001EA090161E7002070472DE9F0430A
:1027400091F80A8091F801C00A7848F6BF774BF6F5
:102750008F7948F2800348F2C0054CF2800648F6B3
:102760008F74B8F1000F2ED0BCF1000F30F822C0EA
:102770004FEA4C4C4ED0BCF1000F07DA30F822C0C3
:102780000CEA040C4CEA060C20F822C00A7830F857
:1027900022C05FEA4C6C07D530F822C00CEA040C6A
:1027A0004CEA050C20F822C00A7830F82250254067
:1027B000354320F822500C7830F824203A401A4350
:1027C00020F824201BE0BCF1000F0ED030F822606E
:1027D000760605D530F8226026402E4320F8226088
:1027E0000A7830F8221039400EE030F822506D049B
:1027F00005D530F822502540354320F822500A787C
:1028000030F8221001EA0901194320F822100020B3
:10281000BDE8F083BCF1000F07DA30F822C00CEA03
:10282000040C4CEA060C20F822C00A7830F822602A
:10283000760605D530F8226026402E4320F8226027
:102840000E7830F8262022402A4320F826200C78E3
:1028500030F8242002EA09021A4320F82420BFE7B6
:10286000002070470020704700B50121A0F84010FB
:102870000021A0F84010A0F84410A0F8501000F07B
:102880003AF9002000BD30F8401F21F43D4101809D
:10289000002070470020704730B54D780A78002D31
:1028A00048F68F7430F8225048F2800312D06D063B
:1028B00007D530F82250254048F2C004254320F8BF
:1028C00022500A7830F8221048F6BF74214081F077
:1028D000300111E06D0407D530F8225025404CF24C
:1028E0008004254320F822500A7830F822104BF655
:1028F0008F74214081F44051194320F822100020A8
:1029000030BD10B50A7848F2800352B149780029E9
:1029100030F8221010D048F6BF74214081F0100129
:102920000FE001884BF6BF72114081F4805181F0B5
:1029300010011943018007E04BF68F74214081F4A8
:102940008051194320F82210002010BD2DE9F041DC
:102950000D460646896995F801C00023AA7A022728
:1029600028690C4648F28008BCF1010F05D081426D
:1029700052D90446081AA8614FE0814203D904469F
:10298000081AA86100E0AB617AB1287836F8201007
:102990004906B6F8501007EBC000084406EB4000AB
:1029A000C0F8004412D52A8911E0A3B2AA883046A3
:1029B000696900F0C8F8B6F85000297807EBC10142
:1029C000084406EB4000C0F800441CE0EA88A3B2CB
:1029D0003046696900F0B7F8687848F68F7110B131
:1029E000012807D00FE0287836F820200A4048F266
:1029F000C00105E0287836F820200A404CF280011A
:102A00000A4326F82020297836F8210048F6BF72BC
:102A1000104080F0300067E0AB6106234FF6FF7096
:102A20001AB1BCF1000F1BD056E0B6F850102A784E
:102A30003E2C03EBC202114406EB410202F5806218
:102A400039D9C4F34F11E30632D000BF00EA812028
:102A500040F4004002E000BF00EA812010603BE04B
:102A6000B6F850102A783E2C07EBC202114406EB50
:102A7000410202F580620BD9C4F34F115FEAC46CC6
:102A800001D1491E89B200EA812141F4004108E0E8
:102A9000C4F34F015FEAC47C01D0491C89B200EA4B
:102AA0008121116069780029BFD001290AD013E083
:102AB000491E89B2CAE7C4F34F01E307CCD0491CD1
:102AC00089B2C9E7B6F85000297807EBC10108447C
:102AD00006EB4000C0F80044297836F821004BF698
:102AE0008F72104080F4405040EA080026F8210020
:102AF0000020BDE8F08130F8401F41F43F410180E3
:102B0000002070470148FDF798BE0000FC0300203C
:102B1000B0F84400704700005B1C00EB42005B080B
:102B200000F5806006D000BF30F8042B21F8022B9E
:102B30005B1EF9D170470020704711B98021A0F8C1
:102B40004C100020704710B55B1C00EB42005B0886
:102B500000F5806009D011F8012B5B1E11F8014BC4
:102B600042EA042220F8042BF5D110BDFEE7FEE76F
:102B70000FB4054B10B503A9044A029800F018F8E9
:102B800010BC5DF814FB0000712E0008FC00002052
:102B900002E008C8121F08C1002AFAD17047704726
:102BA000002001E001C1121F002AFBD17047000084
:102BB0002DE9FF4F8DB09B460F460446002606E0E8
:102BC00025280BD05A460F999047641C761C207814
:102BD0000028F5D111B03046BDE8F08F0025A84699
:102BE0000122984900E0054314F8013F203B02FA16
:102BF00003F00842F7D120782E2817D114F8010FDE
:102C000045F004052A280ED06FF02F022078A0F19D
:102C1000300109290AD808EB880102EB410100EBD9
:102C20000108641CF2E757F8048B641C20786C28B8
:102C30000DD004DC4C2812D06A2811D104E074288D
:102C40000DD07A280CD10AE045F4001507E0617830
:102C500045F48015814202D1641C05F58015641C81
:102C60002278692A45D008DC002AB3D0582A69D0D6
:102C7000632A10D0642A08D13BE0702A67D0732AF7
:102C800013D0752A5CD0782A5CD010465A460F992A
:102C90009047761CD3E017F8040B8DF80000002055
:102CA0008DF80100E946012003E057F8049B4FF03E
:102CB000FF3069074FF0000501D40AE06D1C45455F
:102CC0000DDA8542FADB19F805100029F6D106E085
:102CD0006D1C8542FCDB19F805100029F8D12E4443
:102CE00004E019F8010B5A460F9990476D1EF8D26F
:102CF000A5E00A200021CDE90801C5F30250022811
:102D00000DD001CFC117031E71F100030DDA4FF092
:102D1000000CD0EB0C006CEB01012D2308E0FF1D33
:102D200027F00707F7E80201EDE72B0504D52B2371
:102D30008DF8283001233BE0EB0739D02023F7E75B
:102D40000A2000E010200021CDE9080107E0102052
:102D5000002145F00405CDE908014FF00808C5F34E
:102D6000025002280FD001CF00214FF0000A2B079C
:102D70001FD5702A0DD0DDE908C38CF0100C5CEA79
:102D8000030C0CD015E0FF1D27F00707F7E8020140
:102D9000EBE740228DF828204FF0010A0BE050EAC3
:102DA000010306D030238DF828308DF82920022326
:102DB0009A46582A04D024A20DF120090B9209E06A
:102DC00026A2F9E7DDE90823FDF7F0F90B9B9B5CF0
:102DD00009F8013D50EA0102F4D1ADEB09002030C1
:102DE0000890680701D44FF001080899884502DD72
:102DF000A8EB010000E000208046002506E00AA8BC
:102E00005A46405D0F9990476D1C761C5545F6DB80
:102E100004E030205A460F999047761CB8F1000123
:102E2000A8F10108F5DC05E019F8010B5A460F99E5
:102E30009047761C0899481E08900029F4DC641C11
:102E4000C5E6000009280100303132333435363709
:102E500038396162636465660000000030313233E6
:102E60003435363738394142434445460000000086
:102E700010B5044605484FF47A73014604700122E8
:102E80000348FEF7BBF9204610BD0000FA00002001
:102E90000001002090B040222AA16846FDF774F995
:102EA000FDF72CFBFEF72CFCFEF706FAFEF740FAC6
:102EB000354834490C2201604FF4E1314160002172
:102EC0008160C160C0E904128161C161FEF739F916
:102ED0002E4C00B1FEE74FF47A7508212046FDF72D
:102EE000F1FA50B104212046FDF7ECFA28B1102187
:102EF0002046FDF7E7FA0028EFD108212046FDF72C
:102F0000E1FA0028F9D004212046FDF7DBFA002879
:102F1000F3D010212046FDF7D5FA0028EDD000228D
:102F200020212046FDF7D7FA402269461848FEF7CF
:102F3000AFFD2846FDF7C0F9012220212046FDF70C
:102F4000CAFACAE70102030405060708090A0B0CBE
:102F50000D0E0F101112131415161718191A1B1C29
:102F60001D1E1F202122232425262728292A2B2C19
:102F70002D2E2F303132333435363738393A3B3C09
:102F80003D3E3F4000380140000100200018014054
:102F90008001002000000000000000000102030486
:102FA000060708090000000001020304CC2F0008F6
:102FB0000000002000010000902B0008CC30000829
:102FC00000010020600D0000A02B0008411C00083B
:102FD000791C0008851C0008AD1C0008E11C0008D5
:102FE000191C00084D1C000804030904120100020A
:102FF00000000040C410CD82000201020301000065
:103000000600FF0901A1010901150026FF009540F6
:10301000750881020901150026FF00954075089189
:1030200002C00000340000205902000855020008C8
:103030005D02000801000000100000000000000018
:1030400000A24A0400000000351A0008C719000851
:10305000B91A000800000000F919000895190008C5
:10306000A31900080000000000000000000000009C
:103070001D1A00081D1A00081D1A0008291A000848
:103080000000000009022900010100C0320904000B
:1030900000020300000009211101000122220007A3
:1030A0000581034000010705010340000100000005
:1030B0000921110100012222000000000A0600027D
:0C30C000000000400100000000000000C3
:0400000508000131BD
:00000001FF
